:1000000028C04CC08FC14AC049C042C147C046C089
:1000100045C044C043C042C041C040C03FC00000D2
:10002000000036000000000037000000000038002B
:10003000020202020202020202020102040810206D
:100040002004100801020000040000000000120358
:10005000B80311241FBECFE5D2E0DEBFCDBF10E054
:10006000A0E6B0E0E2E2F8E002C005900D92A2370F
:10007000B107D9F720E0A2E7B0E001C01D92AE3D84
:10008000B207E1F710E0C8E2D0E003C02197FE011B
:10009000B2D3C732D107D1F7F7D1B7C3B1CF3FB78A
:1000A000F8948091DA009091DB00A091DC00B0918F
:1000B000DD0022B708B601FE05C02F3F19F00196FA
:1000C000A11DB11D3FBFBA2FA92F982F8827820FDE
:1000D000911DA11DB11DBC01CD0143E0660F771F2D
:1000E000881F991F4A95D1F70895AF92BF92CF927A
:1000F000DF92EF92FF920F931F93CF93DF936C01E8
:100100007B018B01040F151FEB015E01AE18BF08C8
:10011000C017D10759F06991D601ED91FC9101907A
:10012000F081E02DC6010995892B79F7C501DF9192
:10013000CF911F910F91FF90EF90DF90CF90BF90E4
:10014000AF9008952091B4003091B5002817390779
:1001500071F49091B2008091B300981741F0E09152
:10016000B200F0E0EE58FF4F808190E008958FEFED
:100170009FEF089508951F93CF93DF93DC015C9662
:100180008D919C915D97009739F421E030E01396B2
:100190003C932E9312973BC05196ED91FC91529750
:1001A00050962C915097322F30951FB75E964C91F8
:1001B0005E97742F727041FD6095F89440817723AB
:1001C00011F0422B01C043234083EC012197F1F74A
:1001D00048E0508160FF02C0522B01C0532350837E
:1001E000EC012197F1F76695415099F780817723CB
:1001F00019F08323808302C0282B20831FBF5C96C5
:100200008D919C915D970197F1F781E090E0DF91EE
:10021000CF911F9108952091B4003091B500281717
:10022000390769F48091B3002091B20090E0805CBE
:100230009F4F821B910960E470E0B6D2089580E080
:1002400090E008952091B4003091B5002817390747
:10025000B9F49091B2008091B300981789F0E091C1
:10026000B200F0E0EE58FF4F80812091B20030E004
:100270002F5F3F4F2F7333272093B20090E00895F4
:100280008FEF9FEF0895089580E090E00895B9D230
:100290001F920F920FB60F9211242F933F938F93BB
:1002A0009F93AF93BF938091D6009091D700A09178
:1002B000D800B091D9003091D50026E0230F2D371A
:1002C00020F40296A11DB11D05C029E8230F039655
:1002D000A11DB11D2093D5008093D6009093D70027
:1002E000A093D800B093D9008091DA009091DB0000
:1002F000A091DC00B091DD000196A11DB11D80939D
:10030000DA009093DB00A093DC00B093DD00BF9196
:10031000AF919F918F913F912F910F900FBE0F90B2
:100320001F9018951F920F920FB60F9211242F93C2
:100330003F934F935F936F937F938F939F93AF936D
:10034000BF93EF93FF93E091B400F091B500309725
:1003500009F451C0968DA685B785858591FF04C0A7
:100360009C91892329F447C09C91892309F043C0BB
:10037000A389B4899C918589809589238C938689EA
:1003800097890197F1F7608D718DA685B7855585A1
:1003900038E020E0CB010197F1F7822F90E09595AE
:1003A0008795282F4C91452309F02068315091F70B
:1003B000868D81FD20958091B30090E001968F732A
:1003C00099273091B200381749F0A091B300B0E0FE
:1003D000AE58BF4F2C938093B30003C0868D8160CD
:1003E000868F828D938D0197F1F7A389B4899C91B3
:1003F0008589892B8C93FF91EF91BF91AF919F914C
:100400008F917F916F915F914F913F912F910F90BD
:100410000FBE0F901F90189590E0FC01EC5BFF4F12
:100420002491FC01E65CFF4F3491FC01E05DFF4F3D
:10043000E491EE2341F1222399F0223071F028F467
:10044000213071F48AB58F770AC0233011F024303F
:1004500039F48CB58F7D8CBD03C08AB58F7D8ABD84
:10046000F0E0EE0FFF1FE65DFF4FA591B4919FB73F
:10047000F894611104C08C913095382302C0EC913E
:100480003E2B3C939FBF089578948AB582608ABDC5
:100490008AB581608ABD83B7826083BF83B781607C
:1004A00083BF89B7826089BF80B7826080BF80B711
:1004B000816080BF329A319A3098379A8CB58064C7
:1004C0008CBD1092D1001092D0001092CF001092EB
:1004D000CE001092CD001092CC008DEC90E0909365
:1004E000D3008093D2003091C200353020F545E52D
:1004F00050E05093CD004093CC004BEC50E0509333
:10050000CF004093CE0040E950E05093D10040939B
:10051000D0002BB720622BBF45E350E05093CA00B8
:100520004093C90021E001C0220F3A95EAF72093D9
:10053000CB000197F1F78091D0009091D100892BE9
:1005400049F1E091B400F091B50020E0E63BF207FC
:1005500009F1309739F0A389B4899C9185898095F8
:1005600089238C938091D4008E7F8093D400109245
:10057000B3001092B20086EB90E09093B5008093A8
:10058000B400E091C900F091CA0090818091CB0045
:10059000892B80838AE387BBC0E0D0E086EB90E0C4
:1005A0003ADE18161906ACF486EB90E04BDE823387
:1005B00059F044F4813351F488B3806A88BB88B31E
:1005C0008F7006C0833311F488B388BB88B38974F5
:1005D00088BB65DD4B015C0182E3C82ED12CE12C88
:1005E000F12C5DDDDC01CB0188199909AA09BB0951
:1005F000883E9340A105B105A0F381E0C81AD10857
:10060000E108F10828EE820E23E0921EA11CB11C25
:10061000C114D104E104F10421F7209709F4BECFFD
:10062000EFDCBCCF0F931F93CF93DF931092B900F1
:100630001092B80088EE93E0A0E0B0E08093BA009A
:100640009093BB00A093BC00B093BD0084E690E003
:100650009093B7008093B6001092CD001092CC001A
:100660001092CF001092CE001092D1001092D000C4
:100670001092D3001092D2006091D4006E7F6D7FF3
:100680006093D4006695617081E06827C5DEEBE376
:10069000F0E02491E1E3F0E08491882399F090E088
:1006A000880F991FFC01EC5DFF4FA591B491FC01EF
:1006B000E65DFF4F859194918FB7F894EC91E22B12
:1006C000EC938FBFEBE3F0E0E491E093C600E1E34D
:1006D000F0E0E491F0E0EE0FFF1FE65DFF4F859143
:1006E00094919093C8008093C7000AE310E0F8014A
:1006F0002491C0E3D0E0FE0184918823C9F090E00A
:10070000880F991FFC01EC5DFF4FA591B491FC018E
:10071000E65DFF4F459154913FB7F8949C91822F2D
:10072000809598239C93FA019081892380833FBF11
:100730008091D40081FD03C061E080E06DDE109205
:10074000C200F80104910093C300FE01C491EC2F94
:10075000F0E0EE0FFF1FE25EFF4F859194919093C2
:10076000C5008093C400DF91CF911F910F91089530
:1007700084E690E09093B7008093B6008091B40037
:100780009091B500865B904071F4E091C900F091C2
:10079000CA0090818091CB0080958923808310923C
:1007A000B5001092B400089597FB072E16F400943C
:1007B00006D077FD08D00BD007FC05D03EF490950D
:1007C00081959F4F0895709561957F4F0895AA1B5D
:1007D000BB1B51E107C0AA1FBB1FA617B70710F02C
:1007E000A61BB70B881F991F5A95A9F7809590955E
:1007F000BC01CD010895EE0FFF1F0590F491E02D8F
:10080000099481E090E0F89400C010E0C8E2D0E0E4
:1008100003C0FE01F0DF2196C932D107D1F7F89469
:02082000FFCF08
:1008220000000000BB0075004401BA000B01220168
:02083200A20022
:00000001FF
